:020000040800F2
:10000000582700200D8A0008FD860008FF8600089A
:10001000018700080387000805870008000000002A
:10002000000000000000000000000000078700083A
:1000300009870008000000000B8700080D870008F2
:100040001D8A0008218A0008258A000811870008F7
:10005000298A00082D8A00084F8700085587000864
:10006000318A0008358A000849870008398A000863
:100070003D8A0008418A000815870008458A000863
:10008000498A00084D8A0008518A0008558A0008EC
:10009000598A00085D8A0008618A0008658A00089C
:1000A000698A00086D8A0008718A0008758A00084C
:1000B000798A00087D8A0008818A0008858A0008FC
:1000C000898A00088D8A0008918A0008958A0008AC
:1000D0001B87000821870008998A00089D8A00086C
:1000E000A18A0008A58A0008A98A0008AD8A00082C
:1000F000278700082B8700082F870008B18A00088F
:10010000B58A0008B98A0008BD8A0008C18A0008BB
:10011000C58A0008C98A0008CD8A0008D18A00086B
:10012000D58A0008D98A000833870008DD8A0008CC
:10013000E18A0008E58A0008E98A000838B5040069
:1001400001D1012032BD04F18405686808B900F0CE
:1001500020F800F00DF808B100F031F800F02CF8AC
:10016000012804D000F00DF821F02A0116E032BD7C
:100170002420686020680168490849000160A06A7D
:1001800070472068416821F490414160206881688F
:10019000704700212970204600F090BF816000F078
:1001A00004F8BDE8324000F068BB2068016841F007
:1001B0000101016020467047204600F0F7B9204653
:1001C00000F0F8BA38B50346D3F88C0020280AD1DD
:1001D00009B1100001D1012032BD00F048F8BDE89E
:1001E000384000F0F5BB022032BD38B5044604F1BA
:1001F00054051346686B202831D121B3180022D052
:1002000021652B806B800020E86321216963A86A47
:10021000D8B1DFF88813C162DFF88403A96A0863E4
:10022000A96ADFF8800348630020A96A8863206810
:10023000216D00F12802A86A01F09DF828B1102074
:10024000E86320216963012032BD216840200862F3
:10025000226800F006F800F096F9F9D132BD0220CC
:1002600032BD02F1080151E8001F0832704700203A
:10027000D866DFF834431868A0420CD04068040206
:1002800009D5186850E8004F054644F0806445E8F9
:1002900000400028F5D118467047216801F1080395
:1002A00053E8001F206800F1080221F0400142E8F5
:1002B0000010002870472DE9F041044640F60F0C6D
:1002C0002268D669104616EA0C0F0768936804F195
:1002D0005C0507F0200006F020010DD1002914D0A4
:1002E00010B9D80040F18D80A969002900F049813A
:1002F0002046BDE8F0410847DFF874C813EA0C0F48
:1003000004BFDFF870E817EA0E0F7AD05FEAC67E06
:1003100048BF5FEAC75807D54FF0010EC2F820E08A
:100320006A6B42F001026A63B2070AD5DA0708D5A0
:10033000D4F800E00222CEF820206A6B42F00402DA
:100340006A6372070AD5DA0708D5D4F800E00422F8
:10035000CEF820206A6B42F002026A6332070DD5A4
:10036000002808BF13EA0C0F08D0D4F800C00822F8
:10037000CCF820206A6B42F008026A63320509D586
:100380007F0107D526684FF4006232626A6B42F043
:1003900020026A636A6B002A32D031B108B9D800F2
:1003A00003D5A96909B120468847686B21688A6826
:1003B000510602D410F0280F1DD0204600F0A9FBF2
:1003C00020688168480611D5FFF767FFFCD1686A8D
:1003D00060B10FF645018163686A01F04AF80028B0
:1003E0000ED0686A816BBDE8F04108472046BDE841
:1003F000F04101F035B9204601F032F90020686380
:10040000BFE0286901287CD1F0067AD5F90678D5B5
:1004100010201062226829889068420637D56A6ADF
:100420001368586880B2002828D0884226DA68808D
:10043000106801688A061AD400F0ABF821F48071C4
:1004400000F0A3F8F8D100F061FAFCD1FFF725FF26
:10045000FCD1202028630021296100F09AF821F0C6
:10046000100100F092F8F8D1686A00F0CCFF022089
:10047000686129886888091A89B206E08842BFD174
:100480001A6890067DD502226A61204635E06A88A6
:100490006888891A00281CBF88B2002871D02246BB
:1004A000106850E8003F044623F4907344E800309D
:1004B0000028F5D1106800F1080400F1080354E8A1
:1004C000004FDFF8A806044043E800400028F1D1BF
:1004D00002F15C032020186300241C619C611468F5
:1004E00054E8004F156824F0100445E80040002847
:1004F000F5D10220586189B21046BDE8F04101F003
:10050000B0B8F00209D5590207D54FF48010106237
:100510002046BDE8F04101F0A5B8300609D53906FE
:1005200001D4180205D5E96959B32046BDE8F04168
:100530000847700613D5790611D500F02AF821F086
:10054000400100F022F8F8D104F15C002021C162E2
:100550000022C2612046BDE8F04101F0D2B830026D
:1005600006D5790004D52046BDE8F04101F0DCB89D
:10057000F00148BF002F04D52046BDE8F04101F04E
:10058000D4B8BDE8F08141F0800142E800100028B5
:100590007047206850E8001F02467047790B00083A
:1005A000BF0B0008C50B000800800040F8B50446EA
:1005B000DFF8C00822681368A168034020690B4374
:1005C00061690343E0690B430343136000255168ED
:1005D000E06821F4405101435160A369DFF89818A5
:1005E0008A421CBF206A03439668DFF89008DFF850
:1005F00090E8DFF8907806403343936067A6D36AAB
:10060000606A1B0940EA0313D3627245DFF8780879
:100610004FF4004338D13F6807F00307032F4CD84D
:10062000DFE807F0024542484FF0010CE169B1F5FF
:10063000004F4FF6F07740F07F80BCF1010F09D0FA
:10064000BCF1020F0AD0BCF1040F70D0BCF1080F4E
:1006500070D098E001F006FC002814D0626A61684E
:1006600036F81230B0FBF3F04A0802EB4002B2FB5E
:10067000F1F0A0F11001B942EBD20740C0F3420003
:1006800007432068C7607FE08A4216D13F6817F4AD
:10069000406723D0B7F5806F09D0B7F5006F03D05E
:1006A000B7F5406F06D008E04FF0020C07E04FF0BE
:1006B000040C04E04FF0080C01E04FF0100C8A42EB
:1006C000B4D1BCF1000F09D0BCF1020F0AD0BCF1CB
:1006D000040F15D0BCF1080F15D054E001F0BAFB9F
:1006E000002851D0616A36F81120B0FBF2F662683A
:1006F00002EB42018E4246D31303B34205D242E0DD
:1007000001F05EFBECE71846ECE75008002110EB27
:10071000062051EB1661002301F03CFCA0F5407669
:10072000DFF81479BE422ED22168C8602CE001F0B7
:1007300047FB91E7184691E7BCF1010F09D0BCF1E6
:10074000020F09D0BCF1040F18D0BCF1080F18D06B
:1007500019E001F087FBB8B1626A36F812306168BF
:10076000B0FBF3F000EB5100B0FBF1F0A0F1100191
:10077000B94208D2226880B2D06005E001F020FBC7
:10078000E9E71846E8E7012504F1680001210023A4
:1007900041800180C36003612846F2BD0100020070
:1007A0000400060008000A000C00100020004000B1
:1007B0008000000190F828100A0706D502685368E7
:1007C000816B23F400430B43536090F82810CA0751
:1007D00006D502685368C16A23F400330B435360A3
:1007E00090F828108A0706D502685368016B23F435
:1007F00080330B43536090F828104A0706D50268EF
:100800005368416B23F480230B43536090F8281006
:10081000CA0606D502689368C16B23F480530B4364
:10082000936090F828108A0606D502689368016CD8
:1008300023F400530B43936090F828104A0610D518
:1008400002685368416C23F480130B435360436C7C
:10085000B3F5801F05D15368816C23F4C0030B43AB
:10086000536090F828100A0606D501684A68C06CE3
:1008700022F4002202434A607047F8B5044604F1AE
:1008800084050020E8606FF07E4701F007FC064613
:10089000206801680A0714D50097334600224FF4F8
:1008A0000011204600F04AF858B1FFF772FE21F01F
:1008B0008001FFF76AFEF8D104F184002021416035
:1008C00016E0206801684A0716D5009733460022D3
:1008D0004FF48001204600F031F868B100F024F8B0
:1008E000FCD100F013F8FCD104F1840020218160D8
:1008F000002202700320F2BD202068602021A96040
:100900000020E066002121672870F2BD216801F116
:10091000080353E8001F2068490800F10802490055
:1009200042E8001000287047206850E8001F024687
:1009300021F4907142E80010002870472DE9F04141
:10094000069C05460E4690461F462868C169314000
:10095000B1420CBF01200020404537D114F1010FF6
:10096000F3D001F09BFBC01B844200D314B90320D9
:10097000BDE8F081286801684A07E6D5802E18BFD7
:10098000402EE2D0C169080704D42968C86901056E
:10099000DBD50DE02A6808201062284600F0B9F87F
:1009A00005F184000821C160002202700120DFE708
:1009B00029684FF400600862284600F0AAF805F1A3
:1009C00084002021C16000220270D0E70020CFE720
:1009D00030B5034600209965FF2403F15C010A80CD
:1009E0004A8088619868B0F5805F04D1186990B931
:1009F00040F2FF140FE018B9186960B17F2007E0DA
:100A0000B0F1805F06D1186908B97F2403E03F2068
:100A1000888001E000248C800020486322240C633D
:100A2000196801F1080555E8001F186800F108046D
:100A300041F0010144E800100028F1D103F15C010C
:100A40008868B0F1005F28D18889824225D39A68EE
:100A5000B2F5805F04BF1869002803D10FF22D4260
:100A60008A610BE00FF23D348C61186930B100F0FF
:100A700036F841F48071FFF788FDF8D1196801F16B
:100A8000080454E8001F186800F1080241F0805182
:100A9000FFF77BFDF2D1002030BD9868B0F5805F94
:100AA00004BF186900280CD10FF2FD128A61186882
:100AB00050E8001F024641F02001FFF766FDF6D125
:100AC000E9E70FF291128A6118690028EFD000F06F
:100AD00006F841F49071FFF758FDF8D1DBE719688B
:100AE00051E8001F1A68704710B500F008F8FCD1F3
:100AF00000F0A2F8FCD12021C0F8881010BD0168D8
:100B000051E8002F0B4622F0C00243E800210029E3
:100B10007047016851E8002F0B4622F4907243E8B9
:100B200000210029F5D1016801F1080301F1080253
:100B300053E8003F0D490B4042E800310029F2D153
:100B4000C16E012909D1026852E8002F036822F022
:100B5000100243E800210029F5D12021C0F88C10B3
:100B60000022C2664267704700000000FEFFFFEFF0
:100B7000010000102001000410B50146886A0968D0
:100B80000A68930609D40021A0F8561000F009F86D
:100B9000FCD100F047F8FCD110BDBDE8104000F0DA
:100BA000B0BD026802F1080454E8002F016801F1A9
:100BB000080322F0800243E8002100297047806A80
:100BC00001F072BAF8B5846A04F1880504F1560799
:100BD00000F01CF806D5212804D1002038802046DA
:100BE000FFF782FF21688868410606D5222E04D1CE
:100BF000002038812046FFF78CFFA86840F01000E5
:100C0000A8602046BDE8F24000F02ABD28686E6862
:100C100021688A6811067047806A0021A0F85E107A
:100C200000F01EBD016851E8002F0B4642F0400263
:100C300043E8002100297047026802F1080454E8E3
:100C4000002F016801F1080322F4000243E80021AB
:100C50000029704710B500F050F81FD14B6A9188F9
:100C6000846D0B402370816D4B1C00F04CF819D142
:100C700000F050F8FCD100F057F8FCD100F06CF80F
:100C80000BD10023136100F05DF8FCD10168CB6942
:100C9000DC0644BF10230B627AE07EE0886940F0F6
:100CA0000800886110BD000010B500F026F81FD1C3
:100CB0004B6A9188846D0B402380816D8B1C00F002
:100CC00022F819D100F026F8FCD100F02DF8FCD163
:100CD00000F042F80BD10023136100F033F8FCD18F
:100CE0000168CB69DC0644BF10230B6250E054E07E
:100CF000886940F00800886110BD00F15C0201685D
:100D0000136B222B7047836551884B1E538051888B
:100D100000297047026852E8002F036822F490729D
:100D200043E8002100297047026802F1080454E8F2
:100D3000002F0168520801F10803520043E8002126
:100D400000297047016851E8003F0C4623F010036A
:100D500044E800310029704700F15C022021116352
:100D60000023936100215161434B016899420CD0EB
:100D700049680B0209D5016851E8003F0C4623F091
:100D8000806344E800310029F5D1116901297047D9
:100D90001188BDE8104000F064BCBDE8104000F0D0
:100DA000A6BC00002DE9F84300F00DF94BD1A8894D
:100DB00000283AD0B80638D500F0CFF80870A06DFA
:100DC000421C00F0C1F817D0F90748BF5FEAC852CB
:100DD00000F0B1F803D5F20701D500F0CCF87807A0
:100DE00003D5F20701D500F0BEF8686B20B12046AC
:100DF00000F036FC0020686368880028DAD100F033
:100E0000CCF8FCD100F028F8FCD100F0FAF809D1B8
:100E100000F0E7F844BF102101622988204600F065
:100E200020FC02E0204600F062FC688868B1A989D5
:100E300088420ADA00F0BBF8FCD18048A86100F0D3
:100E4000A2F8FCD101E000F002F8BDE8F18381696D
:100E500041F0080181617047206800F1080200F14B
:100E6000080152E8002F7648024041E8002000289F
:100E700070470000F369FFCF00800040FFF4FF11CE
:100E800000380140880000580024F4002DE9F843A0
:100E900000F099F84BD1A88900283AD0B80638D587
:100EA00000F05BF80880A06D821C00F04DF817D0B0
:100EB000F90748BF5FEAC85200F03DF803D5F207D2
:100EC00001D500F058F8780703D5F20701D500F0F6
:100ED0004AF8686B20B1204600F0C2FB002068632E
:100EE00068880028DAD100F058F8FCD1FFF7B4FF89
:100EF000FCD100F086F809D100F073F844BF10214E
:100F000001622988204600F0ACFB02E0204600F098
:100F1000EEFB688868B1A98988420ADA00F047F8D0
:100F2000FCD14848A86100F02EF8FCD101E0FFF7A1
:100F30008EFFBDE8F18305D501210162686B40F0A9
:100F400001006863B8077047A2656888411E698020
:100F50002068C76917F0070F70472168486AA16DBC
:100F600009EA00007047216804200862686B40F0BD
:100F7000020068637047216802200862686B40F0D5
:100F8000040068637047216851E8001F226841F03F
:100F9000200142E8001000287047216851E8001F36
:100FA000226821F4807142E800100028704722680E
:100FB00002F1080353E8001F083221F0805142E893
:100FC000001000287047044604F15C052068B5F85D
:100FD0000490C7690146D1F800808668296B2229F0
:100FE000704700212961206850E8001F024621F067
:100FF000100142E800100028F5D12068C169CA0636
:101000007047202028630021A961002068610E49F3
:10101000206888420CD04068010209D5206850E859
:10102000001F024621F0806142E800100028F5D13F
:10103000286901287047000000FD0F00550C0008CA
:10104000FEFFFFEFA90C000800800040854900E08A
:10105000854981B00A6802430A6009680840009027
:10106000009801B0704780B54FF40020FFF7F0FF03
:10107000002200212E2001F030F8BDE802402E2091
:1010800001F048B80168794A914200D0704780B5B4
:101090004FF48010FFF7DCFF002200212C2001F02C
:1010A0001CF82C2001F036F8002200212D2001F040
:1010B00014F8BDE802402D2001F02CB838B59EB0E0
:1010C00004461421684601F079F850210AA801F07D
:1010D00075F820686649674D884246D102200A901B
:1010E000002111910AA801F083F808B101F0E1FA9A
:1010F000286840F00100286029685F4D01F0010177
:10110000059105980120FFF7A1FF0221019100221E
:1011100002920C2003210090039108220492694658
:101120004FF0904001F0C6FA54482860112100F0B9
:1011300058F808B101F0BDFA4FF088500021069030
:101140000791ADF820100122099206A9284601F066
:1011500091FB08B101F0ADFAE567AC620022002115
:10116000252000F0BAFF252037E04549884236D1D6
:1011700001200A90002110910AA801F039F808B165
:1011800001F097FA686840F48040686068683D4DF7
:1011900000F48040059005980220FFF757FF0221D8
:1011A000019101220292C0200321009003910722A5
:1011B00004926946344801F07DFA344828600F21D2
:1011C00000F00FF808B101F074FAE567AC62002294
:1011D0000021242000F081FF242000F09BFF1FB09D
:1011E00030BD696000201022E86080216861A8613C
:1011F000E8612862AA602961284600F04DB818B558
:1012000095B00446502101A800F0D8FF226820497B
:101210008A4224D14FF4006001904FF48071119103
:1012200001A800F0E5FF08B101F043FA1948816B0D
:1012300041F4004181630021026842F4806202604F
:101240000022006800F4806000900098032000F005
:1012500044FF032000F05EFF204601F0CDFB16B0F6
:1012600010BD00004C00005850000058000C005801
:10127000008000405C0000581C1500204400024023
:10128000003801407C15002000040048440402405E
:10129000002800405800005838B5040001D1012052
:1012A00032BD2168DFF89023914204F1240502D277
:1012B00000F055F805E000F04AF8DFF880032962F5
:1012C000E8610221697020680268A068E16823680B
:1012D0006FF30E12024320690A4361690243A06959
:1012E0000A43E1690243206A0A4302431A60204626
:1012F00000F074F9A068B0F5804F04BF0021616070
:101300002079696A00F03F0000F014F838B1052830
:1013100005D2204600F07FF900F012F803E000202B
:1013200028636863A8630021A9610120687029709F
:10133000002032BD0860A96AE86A486060687047AA
:10134000296B00200860696BA86B48607047DFF864
:10135000F00241181422B1FBF2F189007047DFF866
:10136000E40241181423B1FBF3F18900DFF8D8221D
:101370002962EA617047F8B5044604F124060025A5
:101380003078012801D10220F2BD01203070777839
:10139000012F2ED102207070AC46C6F818C020680C
:1013A00007687F087F000760204600F0FBF821688F
:1013B000F06820B10A6842F00E020A6008E008688E
:1013C00020F0040008602068016841F00A01016013
:1013D000706A0168CA0303D5016841F48071016035
:1013E000306B18B1016841F48071016000F005F8BC
:1013F00001E0357002252846F2BD2068016841F001
:1014000001010160704740B100F124014A78022ACD
:1014100005D00420886100220A700120704702680C
:10142000136823F00E0313604A6A136823F4807371
:10143000136000680268520852000260012091F8AF
:101440002020CB6902F01C02904058608A6AC86A6A
:101450005060086B38B10246106820F4807010604C
:101460004A6B886B50600120487000220A7000208F
:10147000704738B500F1240200245178022903D0C6
:1014800004209061012429E001680B6823F00E0319
:101490000B6001680D686D086D000D60516A0B6886
:1014A00023F480730B60012192F82030D56903F09A
:1014B0001C0399406960936AD16A5960116B39B114
:1014C0000B46196821F480711960536B916B596058
:1014D000012151701470516901B18847204632BD15
:1014E000F8B500F124010426CA69126803681C6873
:1014F00091F8205005F01C0506FA05F73A4210D085
:1015000067070ED51A68940603D41A6822F00402FD
:101510001A6000F03EF8C968002939D0BDE8F440EF
:101520000847022606FA05F73A4213D0A70711D555
:101530001A68940605D41A6822F00A021A60012378
:101540004B7000F026F800220A70896801B3BDE8EC
:10155000F4400847082606FA05F52A4218D0220763
:1015600016D51C6824F00E041C60012291F820306E
:10157000CC6903F01C039A406260012301228A6156
:101580004B7000220A70096911B1BDE8F4400847A8
:10159000F1BD91F82020CB6902F01C0296405E60FC
:1015A0007047000070B5C56C046D6C60446D14B17B
:1015B000856DC46D6C60012490F84450066C05F094
:1015C0001C05AC407460046863608068102802D118
:1015D000A260E16070BDA160E26070BD10B5416CB9
:1015E0000268154B89089A4239BF184C04EB8101F7
:1015F000174B03EB8101816402F0FF02083A1421CA
:10160000B2FBF1F1012301F01F01124AC26403FA97
:1016100001F1016510BD01790F4A104B836501F09E
:101620003F0102EB81024265491E012201F00301E4
:101630008A40C2657047000008040240000402406E
:10164000F8FBFDBFF8FFFDBF0000024000080240AC
:101650001C08024080080240FC0802404009024089
:1016600070477047704730B5016884684218416818
:1016700002EB5103C90703D54C4401E0491C08D1D2
:101680009A4218BF12F9011B01D10C3030BD12F87B
:10169000015B002904F8015BF0D4491EF7D5EFE7A0
:1016A000002800D0704710B51B4C00F004F8BDE8CE
:1016B0001040FEF787BD1A4823601A4B036070473D
:1016C00038B5002488B9154D15482B60154B0360BB
:1016D000FEF78BFD012805D007D3032804D038BFBF
:1016E000022402E0012400E00324204632BD006809
:1016F0000C49884204D1084A1068002818BF0047E6
:10170000704700680749884204D1044A10680028DD
:1017100018BF0047704700004417002048170020FA
:101720009412002000380140704770474FF0B040DD
:10173000006800F0F000B02888BFB0207047DFF8E4
:10174000E0070068000100F0F00070472DE9F0416B
:10175000040051D0207881064FF0B0453AD5A868F2
:10176000E96810F00C0001F0030103D00C2808BF59
:10177000012943D1E06900283ED0FFF7D7FF014699
:10178000606A814211D200F07FFB002834D12968C1
:10179000606A21F0F001014329606968206A21F440
:1017A0007F4141EA0021696009E0296821F0F001E8
:1017B000084300F018FA606A00F066FBE0B900F038
:1017C0003BFBDFF860170860DFF85C07006801F09A
:1017D0002DF988B92078C10762D5A868E96800F0BA
:1017E0000C00082801F0030103D00C2808BF0329CE
:1017F0002ED16068002853D10120F2E1E069B8B130
:10180000296841F0010100F0D8FA064628688007EF
:1018100006D400F043FC801B0328F7D30320E0E14B
:101820002868616A20F0F000084300F0DCF9D1E795
:1018300028684008400000F094FB064628684008ED
:10184000C007C7D500F02AFC801B0328F6D3E5E7C4
:101850006068B0F5803F04D1296841F48031296087
:1018600003E0286820F480302860606858B100F0F8
:1018700015FC06462868800312D400F00FFC801B7C
:101880006528F7D3CAE700F009FC06462868400C33
:10189000C00705D500F002FC801B6528F6D3BDE724
:1018A0002078810715D5A868E96800F00C000428A5
:1018B00001F0030103D00C2808BF022928D1E068F9
:1018C000002899D06868216920F0FE4040EA016054
:1018D00068602168DFF8546611F0180F00F08B8003
:1018E0006069002877D0C806706858D5800730D462
:1018F000716841F00101716000F0D0FB074670682B
:10190000800726D400F0CAFBC01B0328F7D385E765
:10191000E06870B1296841F4807100F04EFA064623
:1019200028684005CED400F0B9FB801B0328F7D30C
:1019300074E7286820F4807000F013FB06462868DE
:10194000800AC007C5D500F0A9FB801B0328F6D389
:1019500064E7706840F0040000F04EF907467068D4
:10196000000705D400F09AFBC01B0428F7D355E705
:101970007068A16920F4706040EA012070607068AE
:101980004008400000F038F9074670684008C0077A
:1019900031D500F083FBC01B0328F6D33EE740F0AF
:1019A000010000F029F907467068800705D400F0AF
:1019B00075FBC01B0328F7D330E7706820F00400E4
:1019C00070607068C008C00715D500F067FBC01BC9
:1019D0000428F6D322E7706820F0040000F00CF928
:1019E00007467068C008C007C9D500F057FBC01B88
:1019F0000428F6D312E7207841074CD5DFF830856C
:101A0000D8F80000C1050ED401F032F800F046FB12
:101A10000746D8F80000C10505D400F03FFBC01B05
:101A20000328F6D3FAE6A068012804D1306840F014
:101A30000100306010E00528306806D140F0040055
:101A40003060316841F0010105E04008400030603D
:101A5000316821F004013160A06841F2893760B13A
:101A600000F01CFB80463068800714D400F016FBA1
:101A7000A0EB0800B842F6D3D0E600F00FFB80469A
:101A800030684008C00706D500F008FBA0EB08004E
:101A9000B842F5D3C2E62078410622D5A06A0028D4
:101AA000B0680ED040F00100B06000F0F7FA0746D1
:101AB000B068800715D400F0F1FAC01B0328F7D3F3
:101AC000ACE640084000B06000F0E8FA0746B068B5
:101AD0004008C00705D500F0E1FAC01B0328F6D383
:101AE0009CE6E06A00287BD0A968EA68022801F039
:101AF0000C0161D1236B02F00300984202BF02F097
:101B00007000636B984213D1A36BC2F30620984216
:101B100002BF02F47810E36B984209D1236C02F003
:101B20006060984202BF02F06042606C824237D02F
:101B30000C2942D0286841013FF55EAE00F00EFA54
:101B400006462868810105D500F0A8FA801B032805
:101B5000F7D363E6EA68DFF8DC03216B0240606BD1
:101B60000A43A16B0243E06B42EA0122216C02436B
:101B7000606C0A430243EA60296841F08071296081
:101B8000E86840F08050E86000F088FA0446286871
:101B9000810125D400F082FA001B0328F7D33DE62B
:101BA000286881011CD4286840F080702860E968AA
:101BB00041F08051E960E7E70C293FF41DAE00F0E9
:101BC000CDF904462868810105D500F067FA001BAD
:101BD0000328F7D322E6E968DFF85C030140E960F7
:101BE0000020BDE8F08128606868216A20F47F4009
:101BF00040EA012068607047706000F04FBA2DE93C
:101C0000F8430400884600F0B080DFF8305300F05D
:101C1000CBF80CD200F0CDF8074600F0C5F806D09E
:101C200000F03CFAC01B0228F7D90320BAE0207864
:101C300082074FF0B04711D5B968A06821F0F001D4
:101C40000143B96000F02AFA0646B868C00305D41B
:101C500000F024FA801B0228F7D9E6E72078DFF8A5
:101C6000C062820612D53168606921F0F00101433B
:101C7000316000F013FA81463068800306D400F02A
:101C80000DFAA0EB09000228F6D9CEE7207841062C
:101C900013D53068A1690009000140EA11103060D5
:101CA00000F0FCF981463068C00306D400F0F6F974
:101CB000A0EB09000228F6D9B7E72078420711D532
:101CC000B968E06821F4E0610143B96000F0E6F929
:101CD0000646B868800305D400F0E0F9801B0228AE
:101CE000F7D9A2E72078010712D5B868216920F456
:101CF000605040EAC100B86000F0D0F90646B8680C
:101D0000400305D400F0CAF9801B0228F7D98CE7FC
:101D10002078C1072BD56068022819D1396889035A
:101D200023D5BA68920840EA8200B86000F0B6F99C
:101D30000646B868616800F00C00B0EB810F16D061
:101D400000F0ACF9801B41F289318842F1D36CE795
:101D5000032802D13968890103E00028396802D1DB
:101D60008907DED401E04905DBD401201AE02868A8
:101D700000F0070080450BD200F01BF8044600F08D
:101D800013F805D000F08AF9001B0228F7D94CE7B8
:101D900000F052F86349086000F086FEBDE8F243A7
:101DA00000F044BEBDE8F283286800F0070040451B
:101DB00070472968C90848EAC101296000F06EB976
:101DC00038B54FF0B0455F4CA96811F00C0106D151
:101DD000FFF7ACFCC0F3031054F8200032BD042917
:101DE000594828D00829594A04D12968C90222D45F
:101DF000104632BDE96801F0030102290CD0032925
:101E000004D12968C90207D4104605E0FFF78EFC0B
:101E1000C0F3031054F82000E968EA68EB68C1F3E6
:101E200006214843C2F30211491C5B0FB0FBF1F0DD
:101E30005B1CB0FBF3F032BD80B5FFF7C1FF40493A
:101E4000FFE7434A0968C1F3031152F82110B0FBC0
:101E5000F1F002BD80B5FFF7EFFF00F010F8C1F31D
:101E6000022106E080B5FFF7E7FF00F008F8C1F3B4
:101E7000C22112F8211001F01F01C84002BD3049F3
:101E8000344A09687047000070B52E49B1282EBF4A
:101E9000CC6AC0F3031051F82040FFF750FC054610
:101EA00000F01CFE2A49C5F3031251F822102A4AF9
:101EB000B4FBF1F15FF00004B1FBF2F1B0F5007F8B
:101EC00030A220461FD100BF27A353F820508D42D7
:101ED00016D2401C0328F8D9184D2868C00844EAD7
:101EE000C00000F03EF80646286800F00700A04257
:101EF00013D000F0D3F8801B0328F5D3032070BD66
:101F000052F82040E8E700BF1BA353F820508D4251
:101F1000F6D2401C0328F8D3DEE7002070BD000095
:101F20000801005870100020541000209000005844
:101F3000000400588C80C111FCFFFEEE00400058E8
:101F400008000058F88500080024F4000048E80163
:101F5000B88500088489000840420F00286820F0F6
:101F60008070286000F09AB8120000002400000081
:101F70003600000040000000060000000C000000D9
:101F8000100000000000000001000000020000003E
:101F900003000000D3BBD9B1B2F5803F5BD2022A67
:101FA0001ED98C46B1FBF2F102FB11C31B0443EABC
:101FB0001043B3FBF2FC02FB1C3380B240EA034344
:101FC000B3FBF2F002FB103240EA0C4000237047F2
:101FD000022A05D98446B0FBF2F002FB10C270471A
:101FE0004AB105D100F0010249085FEA30007047AC
:101FF00000220023704700F079BD0B000200002191
:1020000000207047F7D3002200237047904271EB05
:10201000030CF2D370B5B1FA81F4B3FA83F52C1B3B
:10202000A340C4F1200532FA05F63343A2405FF025
:102030000046E64002E05B085FEA3202841A71EB78
:10204000030524BF204629467641F4D302000B0045
:102050003000002170BD70B5B1FA81F4B2FA82F59A
:10206000C4F120046419B4F12006DAD3B2405FF061
:102070000044F440002502E052085FEA3303C61A28
:1020800071EB020E24BF3046714664416D41F3D3BB
:1020900002000B002000290070BD2E00014840689E
:1020A000704700BF4C1000207047704709010200C4
:1020B00002D4394881547047384B02F00F021A4459
:1020C00002F8041C704736490A6860F30A2240F29D
:1020D000FA5060F31F420A60704770B5304B1C68BD
:1020E000C4F302230124C3F10705052D2EBF0F25DC
:1020F00004FA05F56D1E1E1D072E34BF0023DB1EDE
:102100002940994004FA03F3BDE870405B1E1A4071
:102110001143CBE7010007D4012200F01F01214B3E
:102120008A40400943F82020704701000BD4012267
:1021300000F01F011C4B8A40400943F82020BFF3E8
:102140004F8FBFF36F8F7047401EB0F1807F01D378
:10215000012070471549164A48600023F02010708E
:102160008B600720086000207047010007D401221F
:1021700000F01F010F4B8A40400943F820207047B0
:10218000010007D4012200F01F010B4B8A404009D7
:1021900043F820207047000000E400E018ED00E064
:1021A0000CED00E000E100E080E100E010E000E084
:1021B00023ED00E000E200E080E200E0002200F019
:1021C00097BC7047DFF81C130A68030903F47F23E8
:1021D00000019A4300F47F2000F081B9DFF8042366
:1021E0001368010C23EA014343EA0043136070477C
:1021F0002DE9F843054600242878DFF8E862410617
:10220000A0464FF0B04743D5286B70B1B0F5800FB2
:1022100006D0B0F5000F18BFB0F5400F2ED035E056
:10222000F96841F48031F96029E0386820F0806075
:102230003860FFF733FF81463868C00EC00707D506
:10224000FFF72CFFA0EB09000228F5D9032415E0C5
:1022500000F03CF9A86821F4781100F02FF98146CC
:102260003868000106D4FFF719FFA0EB0900022827
:10227000F6D9EBE739696869014339613CB93168DE
:10228000286B21F440010143316001E00124A046A4
:102290002868010532D5D6F80880286C08F4407803
:1022A00080452AD000F0E4FBB8F1000FB16805D1F9
:1022B000286C21F440710143B1601EE0B06840F425
:1022C0008030B06021F44071B06820F48030B0609C
:1022D000286C0143B160B068C0070ED5FFF7DEFE81
:1022E0008046B068800708D4FFF7D8FEA0EB08004E
:1022F00041F289318842F4D30324A0462878C207EA
:1023000005D53168A869890840EA810131602978DA
:10231000880705D53168E86921F4406101433160DF
:102320002978C80644BFA86AFFF758FF28788106B5
:1023300044BFE86AFFF752FF2878410744BF286A84
:10234000FFF740FF2878010744BF686AFFF73AFFAC
:102350002868C20535D53168686B21F040610143BA
:102360003160696BB1F1006F00F0A2F8686BB0F1F9
:10237000806F26D1396821F0806100F0A4F804460E
:102380003868C00EC10707D5FFF788FE001B02287A
:10239000F6D94FF0030814E000F098F8E86821F04F
:1023A000606100F08BF804463868010105D4FFF73E
:1023B00075FE001B0228F7D9EBE73969686901430C
:1023C0003961296888051CD5A86BB0F1804F18BF0A
:1023D000B0F1004F00D020B9316821F040410843EE
:1023E00009E0316821F04041316020F080503268CE
:1023F00022F0406210433060A86BB0F1C05F00F083
:1024000057F82868420538D53168E86B21F040510B
:1024100001433160E96BB1F1005F03D1F86840F42A
:102420008030F860E86BB0F1805F26D1396821F028
:10243000806100F048F804463868C00EC10707D52F
:10244000FFF72CFE001B0228F6D94FF0030814E01A
:1024500000F03CF8286921F0604100F02FF80446B4
:102460003868010105D4FFF719FE001B0228F7D9CF
:10247000EBE739696869014339612968C80405D502
:10248000F168686C21F440410143F16029688804D7
:102490000BD5796AE86C21F0300101437962796AE1
:1024A000A86C890840EA810179624046BDE8F28360
:1024B00003D1F86840F08070F860704701433961DB
:1024C000396841F080613960FFF7E8BD38696968B3
:1024D00020F4FE4040EA012038613969704710431A
:1024E0000860704788000058644900E0644981B082
:1024F0000A6802430A60096808400090009801B029
:10250000704710B500F0BCFA00F00CFB00F045F885
:1025100000F080F85B4C5C48606204F1240000F03D
:1025200091FD0420FFF7E2FF0120FFF7DFFF02200B
:10253000FFF7DCFF0420FFF7D7FF0220FFF7D4FFEF
:102540000120FFF7D1FF00220F210E20FFF7C5FD6C
:102550000E20FFF7DFFD00220F213A20FFF7BDFD1F
:102560003A20FFF7D7FD49482060002147F6FF7069
:102570000F22E0606160A2602161A161E16161619F
:10258000204600F097FD00220021204600F0A5F92A
:1025900000F010FB00F04FFCFCE780B59AB048213A
:1025A00008A8FFF70BFE1C2101A8FFF707FE00F0AB
:1025B0005FFA3748016821F01801016001213548B0
:1025C000026861F34A2202604FF48031006800F42F
:1025D000C06000900720009A099101224FF4807199
:1025E0000A920B910890402200210C92139108A8A6
:1025F000FFF7ACF86F2002210190029100220392B4
:102600000492059206920792012101A8FFF7F7FABA
:102610001BB000BD80B594B050216846FFF7CEFDD9
:102620004FF440524FF48041009211910222102148
:10263000129213916846FFF7DBFD15B000BD10B58F
:10264000154C164820604FF4E1310C2060610022E7
:102650004FF40040E06100F023F82046FDF76EFDE6
:102660000021204600F0E6FD0021204600F0EDFDAF
:102670002046BDE8104000F0BFBD000048000058F3
:102680004C000058BC140020000C005800280040EA
:1026900090000058000400589412002000380140B7
:1026A0006160A260E2602261A26122626262A26253
:1026B000704770472DE9F04F0024DFF89881664E8F
:1026C0004FF00F0902460B4631E0644FBA4214BF87
:1026D0004FF0070E4FF0040E0EFA01F141EA050E1D
:1026E0005F4941F82CE0C74331685D683940ED022D
:1026F00048BF0143316071685D683940AD0248BF31
:1027000001437160D8F800105D683940ED0348BF9F
:102710000143C8F80010D8F8041007EA010C596802
:10272000890348BF40EA0C0CC8F804C0641C186850
:1027300030FA04F100F07D800121A1400840F5D07D
:102740004FEA440C032505FA0CF56FEA050E5D68A7
:1027500005F00307012F1CBF05F00305022D10D162
:102760009568DF680EEA050507FA0CF73D439560AA
:10277000556825EA01015D68C5F30015A5402943A8
:102780005160A1001D7905F00305032D1ED0D56809
:102790009F680EEA050507FA0CF73D43D5601D79E1
:1027A00005F00305022D11D1E50802EB850501F0C6
:1027B0001C07D5F820B009FA07FA2BEA0A0BD3F860
:1027C00010A00AFA07F747EA0B072F6215680EEA0E
:1027D00005071D7905F0030505FA0CF545EA070C18
:1027E000C2F800C05D6815F4403F9FD01C4D4FEA11
:1027F000940C55F82C5001F00C0109FA01F7BD4377
:10280000B2F1904F08BF4FF0000E11D0154FBA42F1
:1028100008BF4FF0010E0BD0134FBA4208BF4FF064
:10282000020E05D0114FBA427FF44FAF4FF0030EA6
:1028300052E7BDE8F08F0AB181617047816270474D
:102840000B4A136801460B421CBF116000F006BB27
:102850007047000080080058000800580010004829
:10286000080001400004004800080048000C00482F
:102870000C08005870B500F12403587801281CD1C9
:102880001A78012A01D1022070BD5C6A187025688F
:102890000B480A68CE6805401543761E48680A7AD8
:1028A00045EAC6450543487A45EA024545EA4025DA
:1028B000256000211970002070BD012070BD00004E
:1028C000FFFD00E08A60FF210268516280F821303C
:1028D000002180F82010002070472DE9F84300F017
:1028E00047F808BF022038D000F067F80CD5FFF792
:1028F000D5FB05462068C168480705D5FFF7CEFB24
:10290000401B4045F6D30FE000F039F800F06CF8BA
:10291000FFF7C4FB05462068C1684A0707D4FFF7E4
:10292000BDFB401B4045F6D300F02FF815E0C0F882
:102930001490206800F013F82A48026842F400223C
:1029400002602748016841F4002101602068816825
:1029500041F48041816000F022F8BDE8F283816893
:10296000C908C9008160206881680E43866070478D
:102970000446894694F820001646012870472068CE
:10298000816821F48061816070472068476203217B
:1029900084F82110002084F820000320704720686C
:1029A000816841F48061816001212068476284F878
:1029B0002110002084F820007047012084F82000B6
:1029C000022284F82120CA2021684862532220680C
:1029D0004262FF2720688168480540F2E938704765
:1029E00000080058800800582068C16801F0800184
:1029F00061F49061C160704790F82010012901D105
:102A000002207047012180F82010022380F8213035
:102A1000CA2102685162532301684B620123016895
:102A20008A6842F02002FFF74DBF000070B50F4EDC
:102A3000044630780025A8B1FFF7FEF932784FF44C
:102A40007A71B1FBF2F2B0FBF2F0FFF77DFB48B90F
:102A5000102C07D2002221464FF0FF30FFF73DFB3C
:102A6000B46000E00125284670BD00BF4C10002076
:102A70000248016841F48071016070470004005809
:102A8000134810B5016841F4807101600320FFF71D
:102A90001AFB0020FFF7CAFF0024002814BF0124FE
:102AA000FEF7E1FA204610BD0A48806870470948E1
:102AB00000787047084805E00748016841F00201C6
:102AC00001607047016841F001010160704700003A
:102AD000004000584C100020042004E0DFF80800FB
:102AE000006800F4C06070470004005870470000A0
:102AF00000B500BF130096469446103928BFA0E8E1
:102B00000C50FAD85FEA417C28BF0CC048BF40F89F
:102B1000042BC90728BF20F8022B48BF00F8012B5F
:102B200000BD00001CB5DFF8F813DFF8F8434FF4E0
:102B300000400860606C40010ED5606CC0000BD492
:102B4000FFF796FFFFF794FF206C40F4803020647D
:102B5000206C20F4803020643F22216841F48011F1
:102B600021603F21206800F4801000900098DFF879
:102B7000B80341604261016841F47C11016002695F
:102B800042F47C120261016841F03F010160026978
:102B900042F03F020261002000F0AAFB48B18079B8
:102BA000DFF88813E164E26C22F47C5242EA0022EE
:102BB000E26413BD10B5DFF87803DFF8784388B01E
:102BC000016841F050010160CA22DFF86C03C26164
:102BD0005321C161FF210268D208D2000260C161A5
:102BE000DFF85803026842F40042026000F094FBF0
:102BF000DFF84C030268042161F302020260002046
:102C0000DFF8401300F0C3FC00F06FFE012101204B
:102C100000F087FB002000F017FF012000F014FFF8
:102C2000022000F011FF012000F030FF0121002000
:102C300000F046FF0121012000F042FF01210220A7
:102C400000F03EFF0FF23123BF4901220020FEF7C2
:102C500027FD00F08DFFBD4A00214FF4807001F088
:102C6000E6F804F23C500FF23501009001916946FC
:102C70000FF22D0001F042F904F5C961039104F24D
:102C80005470029040F23C510591049402A800F067
:102C9000F7FF00F06BFF08B010BD000070470000A8
:102CA00070B5064688B07068A94C00F10B054FF46A
:102CB00012422988891A11D0491E6ED0491E00F08F
:102CC0008080891E00F08A80491E00F08C80491E99
:102CD00000F08C80491E00F0908092E0684601F080
:102CE000D0F99DF802309DF801209DF80010204693
:102CF00001F008FA9DF804100FF2702001F002FABA
:102D00009DF80C309DF80B209DF80A109EA001F054
:102D1000F9F900BFA2A001F0F5F904A800210022F2
:102D20000023002580E82E00716801F10D0090F865
:102D3000000038BBA2A0874D01F0E4F900F052FE7C
:102D40000F207F218DF810008DF8121004F5097006
:102D50002E68360C314601F0D5F9ADF81C602C68B0
:102D60009EA0C4F30B04214601F0CCF9ADF81E403F
:102D700004A801F07FF901F0D9F90021012000F049
:102D8000D0FA3EE0012805D104F5127001F0BAF93D
:102D9000357036E004F51F7031E004F1240001F0D5
:102DA000B1F9706800F10D0504F5C070297801F0E3
:102DB000A9F92878002814BF04F5F67004F5D87036
:102DC0001DE004F1480001F09DF9D5F80620D5F882
:102DD000021004F1980001F095F912E0D5F8021004
:102DE00004F1C00006E004F1FC0008E0D5F8021090
:102DF00004F5907001F086F903E004F5AE7001F07F
:102E000081F908B070BD38B50446FFF747F914F1F1
:102E1000010F054609D0FFF74AFE241805E04E4889
:102E2000016821F00401016030BFFFF737F9401B52
:102E3000A042F4D331BD02E07047000000BF4FF064
:102E4000FF3000F083BF00214FF4807000F0FCBF22
:102E5000022001F01BB8022001F020B8012805D0A3
:102E6000022805D0102805D101F0C1BB01F0CEBB6E
:102E700001F0D6BB70470000F8B5384C324F04F56E
:102E800080752E88B6F5807F3BD238780D2835D1F5
:102E90004FEA040159A001F035F91EA1204601F0C6
:102EA00097FC04F5827620B958A001F02BF92C4844
:102EB00014E019A1204601F08BFC28B955A001F0BF
:102EC00021F94FF0B05009E014A1204601F080FC38
:102ED00048B900BF51A001F015F92248686030469A
:102EE00001F080FC03E021464EA001F00BF94FF405
:102EF00080712046FFF762F9002601E0A055761C9C
:102F00002E80394601B0BDE8F040174B0122002069
:102F1000FEF7C6BB535731005357320053573300A7
:102F20001040005850000058040C0058FECAFECA59
:102F3000900800583C000320082800400800005872
:102F400080040058BC140020101700203F3F0008E8
:102F5000CC7D0008002004E010ED00E0F41000201B
:102F60000400001601000016792E000857697265EA
:102F70006C657373204669726D7761726520627546
:102F8000696C642025640A00465553207665727387
:102F9000696F6E2025642E25642E25640A000000CA
:102FA0003E3E3D3D20534843495F5355425F4556A1
:102FB000545F434F44455F52454144590A0D000058
:102FC0003E3E3D3D20574952454C4553535F465781
:102FD0005F52554E4E494E47200A00003E3E3D3D51
:102FE000204442474D43555F4765744465766963A5
:102FF0006549443D20256C78200A0D0072656365A3
:10300000697665642025730A00000000535731205B
:103010004F4B0A00535732204F4B0A00535733206F
:103020004F4B0A004E4F54205245434F474E495A8A
:10303000454420434F4D4D414E44203A2025730ACC
:1030400000000000F8B504460025ACB104F13406D8
:10305000307910B92046FEF715F80F4F384600F0CA
:1030600021F8386840F001103860204600F007F879
:1030700035600121317100E001252846F2BD10B50F
:103080000021064A064B00EB8104491C06296360B7
:10309000E261F8D310BD0000000C0058C321000805
:1030A000AB200008002101604FF03F1242603F2337
:1030B0008360704738B504004CD094F8210028B9DB
:1030C000002184F820102046FEF799F80220DFF84E
:1030D000B81084F821000A68D3063FD400F04BF8FA
:1030E000FF2510B100F03FF834E02168DFF89C00C4
:1030F0008A6802408A602268936860682169034395
:10310000A0690B43034393602068E1680161206874
:103110000169A26841EA024101612068C16821F0A9
:103120008001C1602068C16C89088900C16422687F
:10313000D36CE069616903430B43D3642068816801
:10314000880609D400F015F830B100F00CF8002022
:1031500084F82000012032BD20684562012184F8F6
:103160002110002032BD20684562042184F821101E
:10317000704720460CE02168CA204862532220682C
:10318000426220461DE000000C280040BFFF8FFF78
:1031900038B504462068C16821F0A001C160FEF77F
:1031A0007DFF05462068C168880608D4FEF776FFD3
:1031B000401B40F2E9318842F4D3032032BD0020A5
:1031C00032BD38B504462068C1684A0612D44FF0B3
:1031D000FF31C160FEF762FF05462068C1684806FE
:1031E00008D4FEF75BFF401B40F2E9318842F4D37C
:1031F000032032BD002032BD10B500F184010A78F1
:10320000012A01D1022010BD01220A7024234B6043
:10321000026813681468640864001460002242663F
:1032200023F000530068036020224A6000230B70E3
:10323000002010BD70B500F01FF801D1022070BD54
:1032400000F020F822F0604209E070B500F014F8B8
:1032500001D1022070BD00F015F822F06062114328
:103260008160204600F01CF820680660202169601B
:1032700000222A70002070BD044604F184052878DD
:10328000012870470120287024226A60206806689F
:10329000026852085200026020688268704700008D
:1032A00030B5416E11B90122012114E0026800BF5E
:1032B0000BA49168D2F808200BA3490E01F0070176
:1032C000520FA55C645C9A5C595CED00E40095FBD0
:1032D000F2F294FBF1F168304280018030BD0000D1
:1032E00001010103070100000804020408010101B3
:1032F00020B501460648074D00E00838C2798A42E9
:1033000018BFA842F9D18A4218BF002020BD00BFD3
:10331000F873FF1F0070FF1F0D480021016041601E
:10332000704710B500F007F85C6800F009F85C60C1
:1033300082F3108810BDEFF3108272B6044B704711
:1033400019B1012902D1044370478443704700003A
:1033500018170020DFF854150A6892B200E0024600
:10336000086880B28242FAD17047F0B5DFF8405564
:10337000DFF840352E78182204465443B0421C44EE
:1033800004D128786870627D2A700FE0267D607D08
:1033900094F815C003F115075643062807F806C030
:1033A00004D0267D143312FB00F29E5401202073BA
:1033B0002A78062A02BF00294FF0FF30E860F0BDEE
:1033C00010B5DFF8EC44E06810F1010F0ED0FFF704
:1033D000C1FFE16881422FBFE268E168E2888A1894
:1033E0002179101AE2784843D04000E0002080B2F2
:1033F00010BD2DE9F047DFF8C084DFF8C004D8F82D
:10340000006001684A0502D5F0684107FCD4B06845
:10341000DFF89C74DFF89CA420F48060B0604FF06B
:1034200018093D780AF1080019FB05F14458FFF727
:10343000C7FF844202D20024012105E039894118E6
:10344000A14203D23C890021B97013E00122241A61
:10345000BA700FE019FB05F50AF108035F598742BE
:1034600026BF5959091A00210AF1080251510AEBE5
:1034700005014D7D062DEDD1DFF83474A0B238B9C9
:10348000FFF768FFF8600320BDE8F047FEF76DBE68
:10349000022802DAF878012800D0641EF06841079B
:1034A000FCD5F06800F06CF8F06000F051F9DFF83E
:1034B0000C04C16864F30F01C160FFF74BFFF860B3
:1034C000D8F80000816841F480618160AFF300802A
:1034D000BDE8F0872DE9F843EFF3108472B6DFF80A
:1034E000D853DFF8D0332A68CA2050625321516282
:1034F0009068DFF8BC1320F48060906018200E788C
:10350000374647431F4497F80CC0BCF1020F26D141
:10351000D7F80080D7F810908878E8B17A7B012A34
:103520000AD101213046FFF720FF84F31088796823
:10353000304600F013F904E084F31088304600F0C0
:10354000C7F82868CA214162532242623146424686
:10355000484601F055F90EE0FFF74BFF09E0D0684F
:103560004107FCD5D06800F00BF8D0604FF4002084
:10357000086084F31088FF2228684262BDE8F18366
:10358000DFF83C1300F0800060F490607047F8B5FD
:10359000C94CCA4D2168CA224A6253234B624FF676
:1035A000FF7C2A6842F020022A602A68AB68AD6876
:1035B0001B0C03F07F03C5F30E055B1C6D1C6F1E17
:1035C0001E4602F0070216FB07F6C2F10402A6F53A
:1035D000A076D640B64F66452CBFA7F808C03E81FE
:1035E000FA703B71FD80B74A136843F400231360FF
:1035F000B54B1D6845F400251D6070BB0120B870F7
:103600004FF0FF31F9600020AA49002301F10C04BA
:1036100018255FFA80FC15FB0CFC401CC6B204F8B0
:103620000C30062EF5DB06203870A34C206881682C
:1036300021F480618160C16801F0800161F49061D2
:10364000C16003204FF40021D160FEF799FD20688E
:10365000816841F48041816005E0C868410544BF4C
:103660000320FEF782FD2168FF204862002203212B
:103670000320FEF732FDBDE8F2400320FEF74ABD0D
:103680002DE9F04104460025EFF3108672B61827A5
:10369000DFF820C20CF10C0E07FB05F81EF808003D
:1036A00010B16D1C062DF5DB062D0CD06F430CEB15
:1036B00007000127077386F31088046142730360D3
:1036C0000D70002002E086F310880120BDE8F08133
:1036D000F8B50446EFF3108572B60320FEF725FD1A
:1036E000754E7A493768CA207862532322461820DB
:1036F0007B6242438B5C022B21D100212046FFF7E5
:1037000034FE6B480178062914D16C4801684A05DB
:1037100002D5F8684107FCD4B86820F48060B8602E
:10372000F8684107FCD5F868FFF72AFFF86000F059
:103730000FF804E04078884218BFFFF75AFE31685E
:10374000FF2048620320FEF7E5FC85F31088F1BDF9
:103750004FF4002008600320FEF712BD2DE9F84F5A
:1037600004468A4618252146524E69437718387B0D
:10377000022804BF2046FFF7ABFFEFF3108872B6B4
:103780000320FEF7D2FCDFF83091D9F80000CA21FF
:1037900041625322426202203873C7F808A0C7F87A
:1037A00004A0DFF80CA19AF80000062808D100F068
:1037B00075F878754FF0FF31CAF80C10002056E00C
:1037C000FFF7FEFDB9680918B96006F10803B9688A
:1037D0009AF800206A439A5891422AD39AF8002016
:1037E00004E006F1150E6A431EF8022006F11503E7
:1037F00015FB02FC13F80C30062B06D006F1080C62
:103800006B435CF803309942EBD21146694306F1F1
:10381000150E1EF80130062B05D006F1140C15FB11
:1038200003F50CF805407B753A7506F11502545402
:103830001DE09AF800109AF800C0614515FB01F2EE
:103840000FD006F1140B06F1150C1BF8023015FB16
:1038500003F50CF8054079753B7506F114018C549D
:1038600003E006F1140379759C5400F017F89AF8F8
:1038700000109AF801208A4202D0FFF7BAFD02E058
:10388000B968081AB860FF20D9F800104862032010
:10389000FEF740FC88F31088BDE8F18F9AF800101D
:1038A0008AF801108AF8004070470000282800407C
:1038B000D816002028130020BC140020082800403F
:1038C0000C080058000800588008005834130020E5
:1038D0003E4900E03E4981B00A6802430A60096837
:1038E00008400090009801B07047F0B585B0FFF730
:1038F000E1F8FFF7E1F83748016841F480310160F1
:10390000002600F09AFF14216846FEF757FC0025B8
:1039100000240021304A02EBC102907988B113687B
:10392000B3F1904F0BD02D4FBB4205D02C4FBB4273
:1039300007D19088044304E09288154301E0908801
:103940000643491C2629E5DB0121019100200322C1
:1039500031000290039211D000960120FFF7B8FFCA
:103960000120FFF7B7FF69464FF09040FEF7A2FE37
:10397000002231464FF09040FEF75DFF280010D046
:1039800000950220FFF7A4FF0220FFF7A3FF134ECC
:1039900069463046FEF78EFE002229463046FEF785
:1039A0004AFF200010D000940420FFF791FF04206C
:1039B000FFF790FF0A4D69462846FEF77BFE00227E
:1039C00021462846FEF737FF05B0F0BD4C000058F1
:1039D0004C01005890080058C083000800040048BB
:1039E0000008004800B587B04FEA0D0009A11C226D
:1039F00000F060FF00F079F9684600F033FB07B093
:103A000000BDFEF71CBE13460A4601460020FDF726
:103A100057BE000000000000000000000000000091
:103A2000C0830008280003202C0003202604040083
:103A3000464981B00A6802430A600968084000905C
:103A4000009801B07047000078B585B0044600F0DA
:103A500078F80220FFF7ECFF3FA13D4E31F81450FB
:103A600000950121019100220221029203916946F1
:103A700056F82400FEF71EFE00F002F806B070BDF6
:103A800056F8240000222946FEF7D5BE10B500F0F6
:103A90000FF8BDE810400122FEF7CDBE10B500F0D2
:103AA00007F8BDE810400022FEF7C5BE0000000088
:103AB00029A4274B34F8101053F820007047000059
:103AC00030B585B004460D4600F03BF8200008BF35
:103AD000042004D0012C18BF022C02D10820FFF7CB
:103AE000A7FF2900DFF86C201DA00ED1002130F8BF
:103AF000140001910090012302210293039100F030
:103B00001BF80120FFF77FF914E0012D12D130F8E6
:103B1000140000904FF404130295019300F00CF888
:103B200011A0045D00220F2160B2FEF7D6FA60B248
:103B3000FEF7F0FA05B030BD694652F82400FEF7F2
:103B4000B9BD14210022684600F0C0BE4C000058E8
:103B50005810002064100020200001000200000026
:103B600010000100020000000A06070000F02BBF51
:103B70006C486D49016001F12002426001F130039F
:103B8000836001F14002026201F14803436201F1E6
:103B90005002C26001F15803036101F174024261F5
:103BA00001F1780383618431C16100F02ABF38B527
:103BB00004465E4D284600F087FF5A494868A168D0
:103BC0000160E2685A49C2604160856000F035FFDB
:103BD00058482AE080B55348426813680121197299
:103BE000406800F030FF002002BD38B5514C4F4D09
:103BF00004E000F041F8009821688847284600F06A
:103C000066FF0028F5D031BD4A494868004738B5FD
:103C10000446494D284600F057FF4249C868A1684C
:103C20000160456000F014FF44482168016062684B
:103C30004260002032BD80B53A48C2681368102146
:103C40001972C06800F00AFF002002BD35483B4AE7
:103C5000C168C36811681868084738B5374C364DD5
:103C600004E000F009F8009861688847284600F0F1
:103C70002EFF0028F5D031BD6946284600F050BF20
:103C800038B504462E4D284600F01EFF2D4800F0A2
:103C90001BFF24480069A1688160E268C260056179
:103CA00021680160626842602169416162698261E4
:103CB00031BD80B50146234800F01CFFBDE802403D
:103CC0000FF2050000F0D3BE38B5164C1D4D06E0CE
:103CD000FFF7D2FF00992069006900F00BFF28462A
:103CE00000F0F5FE0028F3D031BD10B5164C20468B
:103CF00000F0EAFE0B4948690460BDE8104000F09E
:103D0000CABE1CB5104C06E06946204600F008FF0C
:103D1000009800F017FF204600F0D9FE0028F3D0ED
:103D200013BD000000000320B8090320580A032037
:103D30009C08032028170020600A03203017002069
:103D4000480A032020170020500A03202DE9F843D9
:103D5000654C664E2569284020614FF0FF37A16809
:103D60006269E068A3694FF001083CE0491C54F81F
:103D700031301A42FAD054F8312004EBC109104016
:103D8000D9F804100CEA0000014208BFC9F8047019
:103D9000D9F80410084000F0ABF8D9F8042008FA6C
:103DA00000F18A43C9F80420E061EFF3108172B694
:103DB00008FA00F2A068D2431040A060012004EB92
:103DC000C003401E53F808CC02EA0C0C43F808CCA0
:103DD000F5D181F31088E16956F821008047A16888
:103DE0006269E068A369D4F810C0014011EA0C0FC1
:103DF00005D01A4203D1002100EA0C02B7E7E761BF
:103E000000F0A1FEEFF3108672B6A2686169E06867
:103E1000236902401A4202BFA0690142FFF70CF871
:103E200086F3108800F090FE2561BDE8F18338B577
:103E30001446EFF3108572B600F05AF82B4941F89A
:103E4000204085F3108831BD30B5EFF3108272B693
:103E5000254B9C6804439C6053F83150284343F839
:103E6000310082F3108830BDEFF3108172B61E4A24
:103E7000D36823EA000005E0EFF3108172B61A4A16
:103E8000D3681843D06081F310887047EFF3108136
:103E900072B6154A536918435061F4E72DE9F041B1
:103EA000114DEE690446374616F1010F0EBF00268C
:103EB000012000FA06F6D5F81880AC6103E021462F
:103EC0003046FEF7BBFF68692042F8D0EF61EFF3A0
:103ED000108072B6696921EA04046C6180F310886D
:103EE000C5F81880BDE8F0812C1000203C1400209B
:103EF000B0FA80F0C0F11F00C0B270477FB50C4629
:103F00004E4D61684E4E28626962281D00F01EFE0B
:103F10002468746006F1080000F0D6FD012000F06E
:103F200069F801203070696841B10FF2ED020FF2BB
:103F3000F103009201930294684688477FBD1FB544
:103F40003F4C04F1080000F0C2FDF8B92078E8B158
:103F5000694604F1080000F0E3FD3848016A49B100
:103F60000098029001228DF8042001A888479DF84E
:103F7000040000E00120207018B10098FFF799FEBE
:103F800004E0009904F1080000F0AAFD04F1080023
:103F900000F09DFD28B9207818B104F10800FEF763
:103FA00052FF1FBD2DE9F04105460E4690461C46C6
:103FB000002000F01FF8224F7868A0F80950C67260
:103FC000324641460C3000F075FC1C4A012010704E
:103FD000002152690020904748F2E800FEF73BFFBD
:103FE00079688A78D21C04F1080000F063FCBDE80F
:103FF000F041012010B51149124C496A20B901B1B4
:1040000088470021217010BD0120207011B1BDE84A
:104010001040084710BD00000020FEF719BF000047
:1040200010B50146064C04F1080000F063FD04F1F0
:104030000800BDE81040FEF706BF00005C16002037
:10404000F816002050170020FFF7ACFF9DF80E0077
:1040500005B000BDF8B500F10C026B462E214FF6FD
:104060006640F1E7F8B500F10C026B460F214FF600
:104070006840E9E7F8B502466B4610214FF67540F7
:10408000E2E7F0B51C491D4B0A681D49C2F30D0259
:1040900001EB82010D682A689A4205D16969AA6913
:1040A000EB69EC682D6905E02E4631697269B369E8
:1040B0007468B5680E0E06700F0C47700E0A867095
:1040C0000272C1F3031601F00F010171C670110EE7
:1040D0004171160C110AC171220C210E8172C2723B
:1040E000240A290E2A0C8671437204734173827369
:1040F000C5730020F0BD00003C400058B95646A9E9
:10410000000003200EB41EB5024605A8019000244D
:10411000009401AB0121044878440C3000F023FDE9
:1041200003B010BC5DF810FBCD480000F8B596B0A8
:10413000DFF89C4507A821463C2200F0BBFBDFF8D6
:1041400094650FF2E9570FF2CD500096019769463A
:1041500001F06EFC01210220FFF7E3F8DFF878257B
:1041600000211020FFF763FE07A8FFF773FF38B1A7
:10417000014604F13C00FFF7C5FFFEF79AFA03E0A1
:1041800004F17400FFF7BEFF0DF11600002101805D
:1041900004F53F70FFF7B6FF01F01EFD010004D0EB
:1041A00004F54A70FFF7AEFF03E00FF2C450FFF7CB
:1041B000A9FFDFF82805016811F1010F0ED0DFF823
:1041C000205542682970120A090A6970110A40686C
:1041D000EA70A870120C29716A7106E00020FFF7DE
:1041E00087F8050008BF0FF2C0552A4606210020B7
:1041F00001F017FD28B1014604F55670FFF782FF64
:1042000010E004F56D70FFF77DFF28780290697863
:104210000191A8780090EB782A79697904F580609B
:10422000FFF770FF0FF288521021182001F0F9FCFF
:1042300028B1014604F23C40FFF764FF03E004F2BA
:104240009440FFF75FFF0FF278521021082001F031
:10425000E8FC28B1014604F2DC40FFF753FF03E01D
:1042600004F23450FFF74EFF1821012001F000FD49
:1042700028B1014604F27C50FFF744FF03E004F24A
:10428000BC50FFF73FFF01F02FFD28B1014604F2BB
:10429000EC50FFF737FF03E004F5C460FFF732FF8F
:1042A00006A80DF11A010190009105AB072200212B
:1042B000042001F0A0FE28B1014604F24460FFF79B
:1042C00021FF03E004F27460FFF71CFF0FF2C0400F
:1042D000BDF81A10DFF80C5400900423BDF8140048
:1042E000002201F015FD0DF1160000900223BDF82B
:1042F0001810BDF81400002201F00AFD01202870FA
:1043000001F036FE28B1014604F5D360FFF7FAFE4E
:1043100003E004F5DB60FFF7F5FE0120687008217B
:104320002971102068710121E970A9700022DFF85D
:10433000B803A86003901021082304920120019182
:104340000093029000230122012101F025FE28B1F3
:10435000014604F5E160FFF7D5FE03E004F2547076
:10436000FFF7D0FEA87860B101F079FE28B10146D0
:1043700004F5F260FFF7C6FE03E004F5FA60FFF70C
:10438000C1FE04F50060FFF7BDFE01F01FFF0FF254
:10439000A52200210120FFF74AFD0FF2E1220021B2
:1043A0000220FFF744FD002085F88000202001F066
:1043B0007EFC28B1014604F19C00FFF7A3FE03E058
:1043C00004F1E000FFF79EFEABA0FFF79BFE01F0BB
:1043D00011FF0FF22533002205F181010020FFF7C4
:1043E0004FF917B0F0BD00002DE9F847044685B03D
:1043F0006078BC4FBD4EDFF8D8820025052807F154
:10440000800900F07D803E2800F08A80FF280DD1D1
:1044100001223273B4F80300042868D040F2074147
:10442000884204D040F6020188421DD0CCE0627977
:10443000022A04BFA1790029F8D10020FFF72EFB42
:10444000BFA0FFF75FFE08F58C70FFF75BFE99F8E1
:104450000200012807D199F80010062903D0002195
:104460000220FFF7F1FCAFE0002001F020FC01008A
:1044700008F1E00508F19C0903D04846FFF742FE29
:1044800002E02846FFF73EFEE079307410232189D0
:1044900071826089B082A189F1820121E089308333
:1044A000208A70830491327C0293019303920090DE
:1044B000338BF28AB18AF88A02F0DEF840B1014605
:1044C00008F5A470FFF71EFE0220FFF7DFFA03E0F5
:1044D00008F5CC70FFF716FE202001F0E8FB20B1B4
:1044E00001464846FFF70EFE6EE0284638E0012000
:1044F000FFF7CCFA99F801000A21FFF72FF963E0E2
:10450000A088F98A88425FD1FD8289F8005008F5B9
:10451000EC70FFF7F7FD0120307300F059F853E01D
:10452000E078012802D002281DD04DE0B4F8051033
:10453000F982062089F8000008F50170FFF7E2FD16
:10454000357300F045F8F88A01F005FC30B908F53C
:104550000D70FFF7D7FD08F51A7001E008F5267019
:10456000FFF7D0FD30E0677B607968BB2AE0601917
:10457000C17B90F80EA0FF2922D1BAF1070F1FDBF3
:10458000007C01281CD100BF71A0FFF7BBFD6019A2
:10459000407C892814D108F53670FFF7B3FD01205F
:1045A00089F80200A1793172E0793070217A717056
:1045B000607AB070A17AF170E07A3071217B71710C
:1045C00055446D1CBD42D2DB012006B0BDE8F0872A
:1045D00006F10C00F98AF18101F036BE4149CA8A20
:1045E000824202D191F8800070470020704780B568
:1045F00001F076FF062805D0BDE804400021012027
:10460000FFF722BCBDE8014001F030BE80B501F0EB
:1046100067FF062803D1BDE8014001F02BBE01BDB4
:1046200080B501F05DFF062803D1BDE8014001F02F
:1046300025BE01BD2B4890F88010062900D1704797
:1046400010B50020FFF722FA53A0294CFFF75AFDBE
:104650004FF4487101230022084601F01CFD08B9FF
:10466000204604E00220FFF711FA04F13000BDE813
:104670001040FFF747BD00000A00000030B587B0CA
:104680001C48184CFFF73EFD94F8800006281CD00B
:104690001020069005904FF4FA722821134B0492D3
:1046A00050200191029000251A7A03954FF4487129
:1046B0000095084601F020FD08B9042003E002201F
:1046C000FFF7E4F9002084F8800007B030BD000057
:1046D000A0750008AC0803206F5A00088075FF1F02
:1046E00008170020B813002007B20100A41600200C
:1046F0009C860008B08800080120FFF7CFB9002190
:104700001020FFF7A1BB0120FFF7C0BB0120FFF77E
:10471000C5BB000010B50446616801F1080001F056
:10472000F1FF00B10120207010BD000010B1012880
:1047300003D07047FF20FFF797BBFF20FFF79CBB1C
:104740004C454420424C5545204F46460A00000047
:104750002D2D2D205354204D414E55464143545547
:10476000524552204944202D2D2D200A0D000000D5
:104770002020537563636573733A206863695F72C1
:104780006573657420636F6D6D616E640A0000006F
:1047900048525F43000000004C454420424C5545C0
:1047A000204F4E0A000000006C7AD8AC577200000F
:1047B000123456789ABCDEF0123456789ABCDEF089
:1047C000FEDCBA0987654321FEDCBA09876543210F
:1047D00010F8012B11F8013B0AB19A42F8D0D01A17
:1047E0007047000000680549C0F3004252010123F0
:1047F00000F01F0003FA00F08850704708080058C6
:104800001047000038B5EFF3108472B6274D6946A3
:10481000281D02F0CDF86946281D02F024F938B1B0
:1048200084F31088BDF80010214AFFF7ECF831BD81
:104830000120287084F3108831BD80B5FFF7E1F8BE
:10484000022100910023194800F124014FF4805205
:10485000001D01F091FF01BD00BFF8B51446002511
:10486000EFF3108610F1010F1ED001281CBF0228A3
:104870004FF0FF3518D1BCB1254672B60B4F01235E
:1048800092B2381D01F08DFF00281CBF3978002935
:1048900008D000223A7086F31088A1B2044AFFF7CC
:1048A000B2F801E086F310882846F2BD0800002027
:1048B000054800084AB1000011F8013B521E00F8FB
:1048C000013B1CBF11F8013BF8E770474018491C39
:1048D0001CBFB1F1010100F8012DF9D170470000B2
:1048E000C0680840884201D101207047002070470D
:1048F000C0690840884201D10120704700207047FC
:1049000010B5684C02212046FFF7F2FF38B160680D
:10491000C043810703D5FFF7A0F9022018E0012169
:104920002046FFF7E5FF38B16068C043C10703D5F3
:10493000FFF75BF901200BE008212046FFF7D8FFC5
:1049400038B16068C043010703D5FFF7DAF90820E2
:10495000A06010BD10B5534C02212046FFF7C0FFE8
:1049600058B96068C043810307D5606840F40030DF
:104970006060BDE81040FFF769B908212046FFF7E5
:10498000AFFF70B96068C04301030AD5606846494B
:1049900040F400206060086880474FF40022A26065
:1049A00010BD20212046FFF79BFF58B96068C04327
:1049B000810207D5606840F400106060BDE81040D7
:1049C000FFF722B910BD394881B0016841F4801168
:1049D0000160006800F4801000900098344801687D
:1049E00041F4007101603348026842F400720260D1
:1049F00040BF20BF3048016841F40041016001B070
:104A0000704780B52D48016841F48011016000684D
:104A100000F48010009000982248016841F00101E4
:104A20000160026842F4803202602C20FDF772FBC4
:104A3000BDE802402D20FDF76DBB21480168490803
:104A40004900016070471F494FF48030086070478B
:104A50001B48016821F002010160704718484FF4BB
:104A600000314160026822F400320260704738B5BC
:104A700004460C4D08212846FFF732FF30B10A48A2
:104A80000460696821F40021696031BDA0474FF4DA
:104A90000020A86031BD0A48016821F008010160CA
:104AA00070470000000C00584017002050010058CB
:104AB00020080058D40800580C0400585000005832
:104AC000040C0058080C0058006040607047EFF379
:104AD000108172B6026882420CBF012000201CE0E7
:104AE000EFF3108272B603680B60486001600868DB
:104AF000416024E0EFF3108272B6086043684B60B7
:104B00004160486801601AE0EFF3108172B64268B4
:104B10000368136002684368536081F3108870472C
:104B200010B5EFF3108472B602680A600168FFE7FF
:104B30000846FFF7E9FF84F3108810BD0B6082F38D
:104B40001088704770477047704700000249034A59
:104B500001600261704700BF0F3C0008373C00084D
:104B600040F0200070472DE9F14FB0B0924604911B
:104B70000DF142013A9A2B9199464A7000200AE0C1
:104B80001AF8011B0498309A90470028049000F00E
:104B900044860D98401C0D909AF8000058B12528C5
:104BA000EED10020002100220790089109920A917D
:104BB0000B920C9104E00D9800F031BE41F0010120
:104BC0001AF8010F2028F9D023280CD02B2804D064
:104BD0002D2805D0302809D00BE041F00201EFE785
:104BE00041F00401ECE741F00801E9E741F0100170
:104BF000E6E72A280FD1D9F8002052F8040BC9F8AB
:104C0000002000280F9003D540420F9041F004018E
:104C10000AF1010A14E00F92DFF8082C0AE00F9B5A
:104C2000934205DA03EB830400EB440030380F9025
:104C30000AF1010A9AF80000A0F130030A2BEED322
:104C40009AF800202E2A03D04FF0FF300E9029E072
:104C50001AF8010F2A2809D1D9F8002052F8040BBC
:104C6000C9F800200E900AF1010A1BE02D280CBFA4
:104C70000AF1010A002000220E92DFF8A84B0BE097
:104C800040B90E9BA34205DA03EB830502EB450214
:104C9000303A0E920AF1010A9AF80020A2F130038C
:104CA0000A2BEDD3ADF840100FF67C309AF80010C7
:104CB00001F024FF08B11AF8010B8DF842009DF8AD
:104CC0004200682805D19AF8001068290CD16220AA
:104CD00006E06C2804BF9AF800106C2904D17120FA
:104CE0008DF842000AF1010A12AA06921AF801BBD5
:104CF000BBF125002CD01C3800F09781001F022842
:104D000040F29381133800F0BA84093800F08D81A5
:104D1000801E00F04F85401E00F0FC84401E0228DB
:104D200040F28381001F00F0F584401F00F0F28004
:104D3000401E00F0A484401E00F0DA80C01E0ED099
:104D4000801E00F09C84C01E00F0998400F03DBDE0
:104D50000122252107928DF8481000F042BDD9F8B4
:104D6000000050F8044BC9F80000002C059440F0F6
:104D7000AB802B994878002800F0A1804FF0FF34D9
:104D80000FF6AC2001F0C6FE241A40F0468500F074
:104D900028BD01236A4602A9304600F00DFE002816
:104DA00040F03B85641EF4D13096079C12AF74B17D
:104DB000309E17F8011B0498B0470028049000F0BB
:104DC0002C850D98401C641E0D90F2D130960A9CE3
:104DD0003021002C8DF800100CDD309E01236A4636
:104DE00002A9304600F0E8FD002840F01685641E58
:104DF000F4D13096059F089C74B1309E17F8011BC2
:104E00000498B0470028049000F007850D98401CD6
:104E1000641E0D90F2D130960B9C3021002C8DF841
:104E200000100CDD309E01236A4602A9304600F0D6
:104E3000C3FD002840F0F184641EF4D1309605983B
:104E40000899099C471874B1309E17F8011B049803
:104E5000B0470028049000F0E0840D98401C641EC8
:104E60000D90F2D130960C9C3021002C8DF8001062
:104E70000CDD309E01236A4602A9304600F09CFDFD
:104E8000002840F0CA84641EF4D130969DF840009A
:104E900041077FF581AE2020002D8DF800007FF7BF
:104EA0007BAE309C01236A4602A9204600F084FDB7
:104EB000002840F0B2846D1EF4D130946CE60FF6F9
:104EC0005830059000F08DBC0E9D002D04D5204675
:104ED00001F040FE044608E02A460021204601F089
:104EE00055FE002814BF041B2C46089400F079BC22
:104EF000D9F8001051F8040BC9F8001020F0000296
:104F0000002121F0FF33CDE9022312AC0594782172
:104F100000F04CBC2B99487820B14FF0FF340FF6CD
:104F2000C8202FE79DF84200622860D0682817D07B
:104F30006A283FD06C2806D0712847D074282CD01E
:104F40007A281DD062E0D9F8001051F8040BC9F896
:104F50000010002866D14FF0FF340FF6A42011E7AF
:104F6000D9F8001051F8040BC9F8001020B94FF01F
:104F7000FF340FF68C2005E70D99018000F031BC5D
:104F8000D9F8001051F8040BC9F80010002849D1D5
:104F90004FF0FF340FF66820F4E6D9F8001051F80E
:104FA000040BC9F8001000283CD14FF0FF340FF675
:104FB0005020E7E6D9F8001051F8040BC9F80010AA
:104FC00080B94FF0FF340FF63820DBE6D9F8001037
:104FD00051F8040BC9F8001020B94FF0FF340FF658
:104FE0002020CFE60D9AD317C0E90023F9E3D9F8C2
:104FF000001051F8040BC9F8001020B94FF0FF342D
:105000000FF6FC10BEE60D990170EAE3D9F8001026
:1050100051F8040BC9F8001020B94FF0FF340FF617
:10502000E010AFE60D990160DBE39DF842004C28EB
:1050300007BFD9F80010CA1DD9F80000C21D22F020
:105040000702C9F80020D2E900010832C9F800209F
:10505000CDE90201C80F02D007982D210AE0BDF862
:105060004000810702D507982B2103E0C00705D532
:105070000798202112AA1154401C079012A80799E2
:105080004BF0200300EB010CDDE90201CDE92C011E
:10509000612BCDF814C021AC0BD00E98002848BF6E
:1050A000062105D404BF4BF02000672801D101215F
:1050B0000E91DDE902014F0047EAD0777E15FF1718
:1050C0004FF0FF32974208BF964210D1090341EAE0
:1050D00010510003002908BF002808D0ABF161057A
:1050E00003211A2D089118D30FF6341110E0DDE9D1
:1050F00002014A00521512F1010F11D108030FD11C
:10510000ABF1610503211A2D08911FD30FF6181179
:1051100003226046FFF7CEFB63E30FF60011F7E7CB
:10512000DDE902016A4601F05DFDCDE902014BF0C7
:105130002000612811D1059830220270811C059150
:10514000BBF1610F0CBF7821582102E00FF6D401AA
:10515000DEE741700798801C0790DDE9020120F02E
:10516000000231F0004308BF002A02D100260025CA
:1051700042E14BF02008B8F1610F40F092800E99A7
:10518000002947BF21200190491C0191019FDDE9C1
:105190002C017F1C00220023DDE9024501F05AFDAD
:1051A00038BF85F0004500988DF88420001F002F3F
:1051B00000900DF1850632DD2046294600220023AD
:1051C00001F062FD2BD21C2201F078FD04460D4651
:1051D00001F012FEFF1F002F804609DD01F028FEBE
:1051E00002460B462046294601F0EAFE04460D46DB
:1051F000F01D0721B8F1000F0CDD491E5EBF08F05D
:105200000F0200F8012D4FEA2818F3D502E0002222
:1052100000F8012D491EFAD5C61D002FCCDC0DF17A
:105220008500361A01980DF185048642D8BF3046B4
:1052300000282FD4B04206DA0DF185010A5C082A55
:10524000A8BF0F2100DA0021024621AB134400E081
:10525000401E13F80159521E8D42F9D00F2904D176
:105260000DF185018B5C5B1C8B54002A04D50099E1
:10527000091D21AC401C0091411E0BD4621813780B
:105280003033DDB23A2DA4BF5B443A3B491E02F8ED
:105290000139F4D50E9A002A40F1AC80411E0E91DE
:1052A000A8E00099DFF8002747F29750414391FBAF
:1052B000F2F20092DDE92C45C2F10702002A25F046
:1052C000004504DD2046294600F04AFB0BE052422F
:1052D0000020DFF8D81600F043FB02460B462046BC
:1052E000294601F0DFFE04460D46B8F1660F06BF01
:1052F000009F0A3706270E983F18142FC8BF14279F
:1053000030208DF884000DF18506002F34DD204615
:10531000294601F0EBFF01460A4606F10803042086
:105320000A26B2FBF6F606EB860EA2EB4E023032F0
:1053300003F8012C0A22B6FBF2F202EB820EA6EB76
:105340004E063036401E03F8026DE9D1083F002FAB
:1053500003F10806D9DD084601F0DAFF02460B46E4
:105360002046294601F02CFE0022DFF8443601F0E9
:10537000DDFF04460D46CAE70DF18500361A0DF132
:10538000850404E00098401E761E0090641C20787E
:105390003028F7D0B8F1660F02D10098401C04E025
:1053A000B8F1650F0CBF012000200E99401886420D
:1053B000B8BF701E00281DD4B04204DA215C342925
:1053C000C8BF392100DC30210246631E9D1800E071
:1053D000401E15F80169521E8E42F9D0392902D1BA
:1053E000A15C491CA154002A04D50099491C1C4603
:1053F000401C00910646009D02F06EF8406A077856
:10540000DDF8388030B2002802DC01260FF21C647F
:105410004BF02000662808BF6D1C16D0672845D1C8
:1054200028B210F1040F47DB404545DA9DF84000F3
:105430006D1C010703D430B24045D8BF804628B266
:10544000B8EB000848BF4FF000080FFA85FBBBF12E
:10545000000F00F3B3800898411C08913022059991
:105460000A54B8F1000F03DC9DF84000010704D591
:105470000898411C089105990F5418EB0B0FB8BF01
:10548000C8F100052DB26842454432B20B909542F6
:10549000B8BF2E46059B089836B20996324621467B
:1054A0001844FFF707FAAD1B0C95D1E0BBF1610F73
:1054B00017D14FF0700B19E030B2404504DA9DF877
:1054C00040100A0758BF8046B8F1010848BF4FF0A6
:1054D0000008BBF1670F14BF4FF0450B4FF0650B91
:1054E00004E0BBF1410F08BF4FF0500B0898411C7E
:1054F0000891B8F1000F059914F8012B0A5403DC48
:105500009DF8400001071AD50898411C0891B8F190
:10551000000F05990F5412DD761E30B28045B8BFDA
:1055200046460598089B32B221461844FFF7C2F957
:10553000089836B230180890A8EB06000B90059832
:105540000899014428B2002881F800B003D42B2028
:105550004870891C04E02D224A700546891C6D4262
:1055600000202CAA0AE02B460A2593FBF5F505EB53
:105570008504A3EB440302F8013B401C2DB2002D2F
:10558000F1DC012806DC4BF02002652A04BF302242
:1055900001F8012B00282CAA08D1302001F8010BBA
:1055A00006E0401E135C303301F8013B0028F8DCB4
:1055B000059A08981044091A099149E030B229B2B5
:1055C00088421CDA0598089B32B221461844FFF73E
:1055D00071F9089936B271180891ABEB0600B8F171
:1055E000000F0B9003DC9DF84000020704D50598DE
:1055F00047540999491C0991CDF8308028E0059855
:10560000089B2AB221461844FFF754F90898761BE4
:105610005844B8F1000F089003DC9DF840100A07C9
:1056200003D5411C089105990F5430B28045B8BF8D
:1056300046460598089B32B204EB0B011844FFF76D
:1056400039F9089836B230180890A8EB06000B908C
:105650009DF8400000F01400102840F0C280079A26
:1056600008980B99821809988A1882180C980F9933
:105670008018884280F2B580081A0A90B1E09DF83F
:105680004200622808D068280ED06A2814D06C28FE
:105690001FD0712810D01CE0D9F8001051F8040B6D
:1056A000C9F80010C0B21AE0D9F8001051F8040B84
:1056B000C9F8001080B212E0D9F80000C21D22F033
:1056C0000702C9F80020D2E900010832C9F8002019
:1056D00006E0D9F8001051F8040BC9F800100021B9
:1056E000CDE902019DF8400002075AD5DDE902012B
:1056F000002908BF002854D04BF02002782A50D14E
:10570000079812A930230B54401C421C079201F841
:1057100000B046E09DF84200622808D068280ED00C
:105720006A2814D06C281FD0712810D01CE0D9F83A
:10573000001051F8040BC9F8001040B21AE0D9F873
:10574000001051F8040BC9F8001000B212E0D9F8AB
:105750000000C21D22F00702C9F80020D2E90001B2
:105760000832C9F8002006E0D9F8001051F8040BFF
:10577000C9F80010C117CDE90201002902D5079828
:105780002D210AE0BDF84000810702D507982B21A2
:1057900003E0C00705D50798202112AA1154401C28
:1057A000079012A8079901440591594602A800F0F4
:1057B0004DF816E001200790D9F8001051F8040BBD
:1057C000C9F800108DF848000BE001202521BBF13D
:1057D000000F07908DF8481003D0022107918DF833
:1057E00049B00F9D07980A992D1A08986D1A0B99C0
:1057F0002D1A09986D1A0C992D1A9DF840006D1AF2
:1058000041073FF5D2AA2020002D8DF800007FF738
:10581000CCAA309E2C46FFF7BCBA4FF0FF3031B017
:10582000BDE8F08FCBCCCC0C686A6C747A4C00006D
:105830007072696E74665F733A20626164202573CA
:1058400020617267756D656E740000002DE9FC4D76
:1058500006468846376940466F2808BF082405D0A9
:10586000FFF77EF9782814BF0A241024D6E9000136
:105870003C2582468B46B8F1640F18BFB8F1690F1A
:1058800005D1002903D5DAF1000A6BEB4B0BBBF114
:10589000000F08BFBAF1000F0CD1306B50B9082CC3
:1058A0003AD196F83800010736D530223B2587F8E3
:1058B0003B2031E08DF800805046594622460023B7
:1058C000FCF768FB3032D0B26D1E3A2801950EDA33
:1058D0007A555046594622460023FCF75BFB824628
:1058E0005FEA010B08BFBAF1000F05D108E09DF88F
:1058F00000001218513AEBE7F06879198842DBD3BF
:10590000082C09D196F83800010705D5785D3028B4
:1059100002D06D1E30207855C5F13C02306BB2616B
:1059200079198242F16008DA318F821A4FF6EF70EE
:10593000014031873262BDE8F38D00280ED596F81C
:10594000380000F01400102808D1736B7069316AB8
:105950001B1A5B1A9B1A002BC8BF3362BDE8F38D7C
:105960002DE9D04306460F4614464FF00008DFF8F5
:10597000449012E0E00707D542464B463046394690
:1059800001F0D4FC06460F464046494642464B4687
:1059900001F0CCFC641080468946002CEAD13046E8
:1059A0003946BDE8D0830000A08601000000F03F2A
:1059B00084D7974100002440F8B505460E461746A7
:1059C0001C4600205CB117F8011BB068A847B06006
:1059D00030B1F06A401CF0620020641EF3D1F2BDC9
:1059E0004FF0FF30F2BD00007072696E74665F7335
:1059F0003A20256E20646973616C6C6F7765640072
:105A00007072696E74663A2062616420256E20614E
:105A10007267756D656E7400000000006E616E0047
:105A20004E414E00696E6600494E4600300000004F
:105A30007FB50C46654D6168654E28626962281D18
:105A400001F04EFD246805F12800FFF73DF8746071
:105A500006F10800FFF738F801203070696829B1B5
:105A60000FF2351200920294684688477FBD1FB539
:105A7000574C04F10800FFF72AF8F8B92078E8B18C
:105A8000694604F10800FFF74BF85048016A49B134
:105A90000098029001228DF8042001A888479DF803
:105AA000040000E00120207018B10098FEF701F911
:105AB00004E0009904F10800FFF712F804F108006F
:105AC000FFF705F828B9207818B104F10800FEF7AF
:105AD00016FE1FBD2DE9FC410446002000F051F8E0
